:10000000001E002091290000D97E00007D290000FB
:100010007D2900007D2900007D29000000000000EE
:10002000000000000000000000000000512B000054
:100030007D29000000000000ED2A00007D2900005D
:100040002D2D00002D2D00002D2D00002D2D000048
:100050002D2D00002D2D00002D2D00002D2D000038
:100060002D2D00002D2D00002D2D00002D2D000028
:100070002D2D00002D2D00002D2D00002D2D000018
:100080002D2D00002D2D00002D2D00002D2D000008
:100090002D2D00002D2D00002D2D00002D2D0000F8
:1000A0002D2D00002D2D00002D2D00002D2D0000E8
:1000B0002D2D00002D2D00002D2D00002D2D0000D8
:1000C0002D2D00002D2D00002D2D00002D2D0000C8
:1000D0002D2D00002D2D00002D2D00002D2D0000B8
:1000E0002D2D00002D2D00002D2D00002D2D0000A8
:1000F0002D2D00002D2D00002D2D00002D2D000098
:100100004FF0FF0C1CEAD0521EBF1CEAD15392EAFA
:100110000C0F93EA0C0F6FD01A4480EA010C4002D6
:1001200018BF5FEA41211ED04FF0006343EA501030
:1001300043EA5111A0FB01310CF00040B1F5000F72
:100140003EBF490041EAD3715B0040EA010062F121
:100150007F02FD2A1DD8B3F1004F40EBC25008BF0B
:1001600020F00100704790F0000F0CF0004C08BF29
:1001700049024CEA502040EA51207F3AC2BFD2F1F6
:10018000FF0340EAC250704740F400004FF0000304
:10019000013A5DDC12F1190FDCBF00F0004070473E
:1001A000C2F10002410021FA02F1C2F1200200FA7C
:1001B00002FC5FEA310040F1000053EA4C0308BF43
:1001C00020EADC70704792F0000F00F0004C02BF94
:1001D000400010F4000F013AF9D040EA0C0093F00F
:1001E000000F01F0004C02BF490011F4000F013B69
:1001F000F9D041EA0C018FE70CEAD15392EA0C0FD7
:1002000018BF93EA0C0F0AD030F0004C18BF31F041
:10021000004CD8D180EA010000F00040704790F017
:10022000000F17BF90F0004F084691F0000F91F0BB
:10023000004F14D092EA0C0F01D142020FD193EA81
:100240000C0F03D14B0218BF084608D180EA010009
:1002500000F0004040F0FE4040F40000704740F0E5
:10026000FE4040F44000704781F0004102E000BFD2
:1002700083F0004330B54FEA41044FEA430594EA66
:10028000050F08BF90EA020F1FBF54EA000C55EAA1
:10029000020C7FEA645C7FEA655C00F0E2804FEA72
:1002A0005454D4EB5555B8BF6D420CDD2C4480EA54
:1002B000020281EA030382EA000083EA010180EA84
:1002C000020281EA0303362D88BF30BD11F0004FD2
:1002D0004FEA01314FF4801C4CEA113102D0404208
:1002E00061EB410113F0004F4FEA03334CEA133343
:1002F00002D0524263EB430394EA050F00F0A7805B
:10030000A4F10104D5F1200E0DDB02FA0EFC22FA55
:1003100005F2801841F1000103FA0EF2801843FA49
:1003200005F359410EE0A5F120050EF1200E012A3A
:1003300003FA0EFC28BF4CF0020C43FA05F3C01878
:1003400051EBE37101F0004507D54FF0000EDCF1F1
:10035000000C7EEB00006EEB0101B1F5801F1BD39A
:10036000B1F5001F0CD349085FEA30004FEA3C0C9E
:1003700004F101044FEA445212F5800F80F09A8094
:10038000BCF1004F08BF5FEA500C50F1000041EB98
:10039000045141EA050130BD5FEA4C0C404141EB9C
:1003A0000101013C28BFB1F5801FE9D291F0000F97
:1003B00004BF01460020B1FA81F308BF2033A3F146
:1003C0000B03B3F120020CDA0C3208DD02F1140C3D
:1003D000C2F10C0201FA0CF021FA02F10CE002F178
:1003E0001402D8BFC2F1200C01FA02F120FA0CFC71
:1003F000DCBF41EA0C019040E41AA2BF01EB0451BA
:10040000294330BD6FEA04041F3C1CDA0C340EDCB7
:1004100004F11404C4F1200220FA04F001FA02F3FA
:1004200040EA030021FA04F345EA030130BDC4F1B8
:100430000C04C4F1200220FA02F001FA04F340EAAD
:100440000300294630BD21FA04F0294630BD94F05E
:10045000000F83F4801306BF81F480110134013D45
:100460004EE77FEA645C18BF7FEA655C29D094EAB6
:10047000050F08BF90EA020F05D054EA000C04BF34
:100480001946104630BD91EA030F1EBF002100201F
:1004900030BD5FEA545C05D14000494128BF41F0BE
:1004A000004130BD14F580043CBF01F5801130BD22
:1004B00001F0004545F0FE4141F470014FF00000AD
:1004C00030BD7FEA645C1ABF194610467FEA655C5E
:1004D0001CBF0B46024650EA013406BF52EA033500
:1004E00091EA030F41F4002130BD00BF90F0000FEE
:1004F00004BF0021704730B54FF4806404F132042A
:100500004FF000054FF0000150E700BF90F0000FE2
:1005100004BF0021704730B54FF4806404F1320409
:1005200010F0004548BF40424FF000013EE700BFD9
:1005300042004FEAE2014FEA31014FEA02701FBF69
:1005400012F07F4393F07F4F81F06051704732F09B
:100550007F4208BF704793F07F4F04BF41F40021F2
:10056000704730B54FF4607401F0004521F0004150
:100570001CE700BF50EA010208BF704730B54FF0DA
:1005800000050AE050EA010208BF704730B511F0DB
:10059000004502D5404261EB41014FF4806404F113
:1005A00032045FEA915C3FF4D8AE4FF003025FEA99
:1005B000DC0C18BF03325FEADC0C18BF033202EB1D
:1005C000DC02C2F1200300FA03FC20FA02F001FA77
:1005D00003FE40EA0E0021FA02F11444BDE600BF1A
:1005E00070B54FF0FF0C4CF4E06C1CEA11541DBFC9
:1005F0001CEA135594EA0C0F95EA0C0F00F0DEF894
:100600002C4481EA030621EA4C5123EA4C5350EA78
:10061000013518BF52EA033541F4801143F48013C9
:1006200038D0A0FB02CE4FF00005E1FB02E506F05A
:100630000042E0FB03E54FF00006E1FB03569CF0AF
:10064000000F18BF4EF0010EA4F1FF04B6F5007FB5
:1006500064F5407404D25FEA4E0E6D4146EB060627
:1006600042EAC62141EA55514FEAC52040EA5E50B0
:100670004FEACE2EB4F1FD0C88BFBCF5E06F1ED85A
:10068000BEF1004F08BF5FEA500E50F1000041EB91
:10069000045170BD06F0004646EA010140EA02003E
:1006A00081EA0301B4EB5C04C2BFD4EB0C0541EA60
:1006B000045170BD41F480114FF0000E013C00F375
:1006C000AB8014F1360FDEBF002001F0004170BD99
:1006D000C4F10004203C35DA0C341BDC04F11404B2
:1006E000C4F1200500FA05F320FA04F001FA05F23E
:1006F00040EA020001F0004221F0004110EBD3700B
:1007000021FA04F642EB06015EEA430E08BF20EA36
:10071000D37070BDC4F10C04C4F1200500FA04F3D9
:1007200020FA05F001FA04F240EA020001F000416B
:1007300010EBD37041F100015EEA430E08BF20EADE
:10074000D37070BDC4F1200500FA05F24EEA020E26
:1007500020FA04F301FA05F243EA020321FA04F055
:1007600001F0004121FA04F220EA020000EBD3700C
:100770005EEA430E08BF20EAD37070BD94F0000F0C
:100780000FD101F00046400041EB010111F4801F40
:1007900008BF013CF7D041EA060195F0000F18BFF1
:1007A000704703F00046520043EB030313F4801F2D
:1007B00008BF013DF7D043EA0603704794EA0C0FE7
:1007C0000CEA135518BF95EA0C0F0CD050EA4106FD
:1007D00018BF52EA4306D1D181EA030101F000417A
:1007E0004FF0000070BD50EA410606BF10461946A2
:1007F00052EA430619D094EA0C0F02D150EA0136AE
:1008000013D195EA0C0F05D152EA03361CBF1046EE
:1008100019460AD181EA030101F0004141F0FE418D
:1008200041F470014FF0000070BD41F0FE4141F411
:10083000780170BD70B54FF0FF0C4CF4E06C1CEA11
:1008400011541DBF1CEA135594EA0C0F95EA0C0FC6
:1008500000F0A7F8A4EB050481EA030E52EA033581
:100860004FEA013100F088804FEA03334FF08055A2
:1008700045EA131343EA12634FEA022245EA1115CF
:1008800045EA10654FEA00260EF000419D4208BF80
:10089000964244F1FD0404F5407402D25B084FEA2D
:1008A0003202B61A65EB03055B084FEA32024FF4D9
:1008B00080104FF4002CB6EB020E75EB030E22BF36
:1008C000B61A754640EA0C005B084FEA3202B6EBF6
:1008D000020E75EB030E22BFB61A754640EA5C00A5
:1008E0005B084FEA3202B6EB020E75EB030E22BF35
:1008F000B61A754640EA9C005B084FEA3202B6EB36
:10090000020E75EB030E22BFB61A754640EADC00F4
:1009100055EA060E18D04FEA051545EA16754FEA56
:1009200006164FEAC30343EA52734FEAC2025FEA74
:100930001C1CC0D111F4801F0BD141EA00014FF003
:1009400000004FF0004CB6E711F4801F04BF0143D4
:100950000020B4F1FD0C88BFBCF5E06F3FF6AFAEF0
:10096000B5EB030C04BFB6EB020C5FEA500C50F180
:10097000000041EB045170BD0EF0004E4EEA113103
:1009800014EB5C04C2BFD4EB0C0541EA045170BD0A
:1009900041F480114FF0000E013C90E645EA060E4E
:1009A0008DE60CEA135594EA0C0F08BF95EA0C0F7C
:1009B0003FF43BAF94EA0C0F0AD150EA01347FF4C4
:1009C00034AF95EA0C0F7FF425AF104619462CE79B
:1009D00095EA0C0F06D152EA03353FF4FDAE1046FE
:1009E000194622E750EA410618BF52EA43067FF44F
:1009F000C5AE50EA41047FF40DAF52EA43057FF4DF
:100A0000EBAE12E74FF0FF3C06E000BF4FF0010CE9
:100A100002E000BF4FF0010C4DF804CD4FEA410C4D
:100A20007FEA6C5C4FEA430C18BF7FEA6C5C1BD01A
:100A300001B050EA410C0CBF52EA430C91EA030F9B
:100A400002BF90EA020F0020704710F1000F91EAF8
:100A5000030F58BF994208BF90422CBFD8176FEAC6
:100A6000E37040F0010070474FEA410C7FEA6C5C94
:100A700002D150EA013C07D14FEA430C7FEA6C5C9B
:100A8000D6D152EA033CD3D05DF8040B704700BFC7
:100A90008446104662468C461946634600E000BF15
:100AA00001B5FFF7B7FF002848BF10F1000F01BDE7
:100AB0004DF808EDFFF7F4FF0CBF012000205DF8B2
:100AC00008FB00BF4DF808EDFFF7EAFF34BF012037
:100AD00000205DF808FB00BF4DF808EDFFF7E0FFD0
:100AE00094BF012000205DF808FB00BF4DF808ED21
:100AF000FFF7CEFF94BF012000205DF808FB00BF88
:100B00004DF808EDFFF7C4FF34BF012000205DF869
:100B100008FB00BF4FEA4102B2F1E04324BFB3F546
:100B2000001CDCF1FE5C0DD901F0004C4FEAC00264
:100B30004CEA5070B2F1004F40EB830008BF20F048
:100B40000100704711F0804F21D113F13872BCBF02
:100B500001F00040704741F480114FEA5252C2F157
:100B60001802C2F1200C10FA0CF320FA02F018BFA0
:100B700040F001004FEAC1234FEAD32303FA0CFCF3
:100B800040EA0C0023FA02F34FEA4303CCE77FEA82
:100B9000625307D150EA01331EBF4FF0FE4040F4CC
:100BA0004000704701F0004040F0FE4040F400007B
:100BB000704700BF80F0004002E000BF81F00041BC
:100BC00042001FBF5FEA410392EA030F7FEA226CF3
:100BD0007FEA236C6AD04FEA1262D2EB1363C1BF83
:100BE000D218414048404140B8BF5B42192B88BFF2
:100BF000704710F0004F40F4000020F07F4018BF15
:100C0000404211F0004F41F4000121F07F4118BF34
:100C1000494292EA030F3FD0A2F1010241FA03FCDC
:100C200010EB0C00C3F1200301FA03F100F00043C4
:100C300002D5494260EB4000B0F5000F13D3B0F18C
:100C4000807F06D340084FEA310102F10102FE2AFB
:100C500051D2B1F1004F40EBC25008BF20F001006B
:100C600040EA03007047490040EB0000013A28BF0A
:100C7000B0F5000FEDD2B0FA80FCACF1080CB2EB8D
:100C80000C0200FA0CF0AABF00EBC250524218430B
:100C9000BCBFD0401843704792F0000F81F40001B0
:100CA00006BF80F400000132013BB5E74FEA410383
:100CB0007FEA226C18BF7FEA236C21D092EA030FEF
:100CC00004D092F0000F08BF0846704790EA010F69
:100CD0001CBF0020704712F07F4F04D1400028BF96
:100CE00040F00040704712F100723CBF00F5000078
:100CF000704700F0004343F0FE4040F400007047AE
:100D00007FEA226216BF08467FEA23630146420259
:100D100006BF5FEA412390EA010F40F4800070476C
:100D20004FF0000304E000BF10F0004348BF404212
:100D30005FEA000C08BF704743F0964301464FF04E
:100D400000001CE050EA010208BF70474FF00003AA
:100D50000AE000BF50EA010208BF704711F00043EB
:100D600002D5404261EB41015FEA010C02BF8446BB
:100D70000146002043F0B64308BFA3F18053A3F51A
:100D80000003BCFA8CF2083AA3EBC25310DB01FA61
:100D900002FC634400FA02FCC2F12002BCF1004FE5
:100DA00020FA02F243EB020008BF20F00100704776
:100DB00002F1200201FA02FCC2F1200250EA4C00CA
:100DC00021FA02F243EB020008BF20EADC70704710
:100DD0007BB972B90029BEBF00204FF0004106E088
:100DE00008BF00281CBF6FF000414FF0FF3000F03B
:100DF00057B8ADF1080C6DE904CE002909DB002BD2
:100E00001ADB00F04FF8DDF804E0DDE9022304B05E
:100E10007047404261EB4101002B1BDB00F042F8C0
:100E2000DDF804E0DDE9022304B0404261EB41015A
:100E3000524263EB43037047524263EB430300F0BB
:100E400031F8DDF804E0DDE9022304B0404261EB53
:100E500041017047524263EB430300F023F8DDF891
:100E600004E0DDE9022304B0524263EB4303704720
:100E700053B94AB9002908BF00281CBF4FF0FF3101
:100E80004FF0FF3000F00CB8ADF1080C6DE904CE66
:100E900000F008F8DDF804E0DDE9022304B0704753
:100EA000704700BF2DE9F04786468C460846089EED
:100EB000154674461946002B40F0C2808542B2FAAE
:100EC00082F245D94AB1C2F1200300FA02FC2EFA9F
:100ED00003F3954043EA0C0C94404FEA154EA8B238
:100EE000BCFBFEF8230C0EFB18CC08FB00F943EA10
:100EF0000C43994528D9EB1808F1FF3704D29945DE
:100F000002D9A8F102072B44A3EB0903A4B2B3FB57
:100F1000FEFC0EFB1C330CFB00F044EA0344A04231
:100F200014D92C190CF1FF3304D2A04202D9ACF130
:100F300002032C44241A43EA07401EB1D440002384
:100F400034607360BDE8F0874746DDE76346F1E74C
:100F500092BB431B01214FEA154EAFB2B3FBFEFC1F
:100F6000200C0EFB1C330CFB07F840EA03439845AA
:100F700062D9EB180CF1FF3004D2984502D9ACF1DC
:100F800002002B44A3EB0803A4B2B3FBFEFC0EFB50
:100F90001C330CFB07F744EA0344A7424ED92C1933
:100FA0000CF1FF3304D2A74202D9ACF102032C4466
:100FB000E41B43EA0040C0E7C2F1200320FA03F13A
:100FC000954090402EFA03F303434FEA154EAFB21B
:100FD000B1FBFEFC0EFB1C10190C0CFB07F841EAE0
:100FE0000041884504FA02F422D969180CF1FF3057
:100FF00004D2884502D9ACF102002944A1EB0801D2
:101000009BB2B1FBFEFC0EFB1C110CFB07F743EA85
:1010100001439F420ED9EB180CF1FF3104D29F42DD
:1010200002D9ACF102012B44DB1B41EA004192E7FB
:101030006046E3E76146F7E76046A3E76346B7E744
:10104000834206D916B9002108467BE7C6E900E0CD
:10105000F9E7B3FA83F78FB9834201D3724508D811
:10106000BEEB020460EB030301209C461EB9002185
:1010700068E73846FAE7C6E9004CF8E7C7F1200C04
:10108000BB4022FA0CF41C432EFA0CF120FA0CF3AC
:10109000B84001434FEA14490EFA07F5B3FBF9F8DB
:1010A0001FFA84FE09FB18300B0C08FB0EFA43EA0A
:1010B00000439A4502FA07F240D9E31808F1FF30DD
:1010C00004D29A4502D9A8F102002344A3EB0A03F3
:1010D00089B2B3FBF9F809FB183308FB0EFE41EAAD
:1010E00003418E452CD9611808F1FF3304D28E4597
:1010F00002D9A8F10203214443EA0040A0FB029870
:10110000A1EB0E014145CE46434602D306D14D45E3
:1011100004D2B9EB020E68EB04030138002EA6D00E
:10112000B5EB0E0261EB030101FA0CFC22FA07F3A6
:101130004CEA0303F940C6E9003198E74046C5E7A9
:101140004346D9E7000000002DE9F04FA3B0C24D9F
:10115000284607F0ABFB0446002800F06B812A68A4
:10116000BE48294606F039FD0027022364260125E2
:1011700010AA07210320CDE91037CDE91267CDE988
:10118000145701F009F814AA0621032001F004F80D
:1011900012AA3946032000F0FFFF07214FF4FA732B
:1011A000084610AACDE91037CDE91267CDE91457EA
:1011B00000F0F2FF14AA0621072000F0EDFF12AAAA
:1011C0003946072000F0E8FF0FF27C2BDBE900AB8B
:1011D00000214FF4A47004F073FF9F4CA5683A21DE
:1011E000EB6820469847002F40F0188103212B69B7
:1011F00016AA2046984707212B691CAA2046984723
:101200001798FFF783F952465B46FFF713FB044636
:1012100016980D46FFF77AF902460B4620462946F6
:10122000FFF728F8FFF776FC04461998FFF76EF9E8
:1012300052465B46FFF7FEFA804618988946FFF74C
:1012400065F902460B4640464946FFF713F8FFF79B
:1012500061FC06461B98FFF759F952465B46FFF7BB
:10126000E9FA80461A988946FFF750F902460B467C
:1012700040464946FEF7FEFFFFF74CFC05461D9829
:10128000FFF744F952465B46FFF7D4FA80461C98B4
:101290008946FFF73BF902460B4640464946FEF7B2
:1012A000E9FFFFF737FCFFF743F969A3D3E9002310
:1012B000FFF796F9FFF72EFC0C901F98FFF726F921
:1012C00052465B46FFF7B6FA80461E988946FFF7FE
:1012D0001DF902460B4640464946FEF7CBFFFFF795
:1012E00019FCFFF725F95AA3D3E90023FFF778F992
:1012F000FFF710FC0D902198FFF708F952465B4666
:10130000FFF798FA804620988946FFF7FFF80246D3
:101310000B4640464946FEF7ADFFFFF7FBFBFFF7E4
:1013200007F94BA3D3E90023FFF75AF9FFF7F2FBC4
:101330000E903046FFF7FCF8CDE90A012946284611
:10134000FEF7DEFE214680462046FEF7D9FE4146E6
:10135000FFF736FCFFF7ECF806F058FB02460B46A9
:10136000DDE90A0100F07CFC39A3D3E90023FFF793
:1013700037F9FFF7CFFB31460F903046FEF7C0FE3E
:101380004146FFF71DFCFFF7D3F806F03FFB804610
:10139000894604F10040FFF7CBF842464B4600F087
:1013A0005FFC2BA3D3E90023FFF71AF9FFF7B2FB89
:1013B00006462046FFF7BCF880460E988946FFF7A0
:1013C000B7F8CDE908010D98FFF7B2F8CDE90601AD
:1013D0000C98FFF7ADF8CDE904012846FFF7A8F80F
:1013E000DDE90A34CDE902014246CDE900341C486A
:1013F0004B4606F0F2FB0F98FFF79AF802460B46B1
:10140000184806F0EAFB3046FFF792F802460B4612
:10141000154806F0E2FB0A2005F0DCF9BA1CC823E7
:10142000B2FBF3F103FB112700214FF4A47004F089
:1014300047FECDE629680D4806F0CFFB204623B0D5
:10144000BDE8F08FAFF300800000000080842E41E3
:10145000E5BF631ADCA54C40BC9000008C980000EE
:10146000A2980000129900003199000074980000C1
:101470002DE9F04114460569B9B9B5F90000297B99
:10148000714D80FB0101A0FB050647F6FF720023AA
:1014900005FB0161FFF79CFC6C4A0023FFF798FCF9
:1014A000206062600020BDE8F0810139062900F269
:1014B000C280DFE801F004070A4865686B00B5F9EF
:1014C0000200DCE7B5F90400D9E7B5F90000297B93
:1014D0005D4E80FB0101A0FB060747F6FF7200236B
:1014E00006FB0171FFF774FC584A0023FFF770FCFC
:1014F000C4E90002B5F90200297B80FB0101A0FBD1
:10150000060747F6FF72002306FB0171FFF760FC38
:101510004E4A0023FFF75CFCC4E90202B5F904005F
:10152000297B80FB0101A0FB060547F6FF72002323
:1015300006FB0151FFF74CFC444A0023FFF748FC2F
:1015400020616261AEE7B5F906302A8A83FB025258
:101550003F4BA5FB035603FB0266284638A3D3E99D
:1015600000233146FFF734FC3A4A20600023284626
:101570003146FFF72DFC354A0023FFF729FC90E7A1
:10158000B5F90830E1E7B5F90A30DEE7B5F90670DC
:101590002B8A2F4E87FB0373A7FB067806FB038875
:1015A000384627A3D3E900234146FFF711FC294A17
:1015B0002060002338464146FFF70AFC234A0023F7
:1015C000FFF706FC6260B5F908702B8A87FB03738E
:1015D000A7FB067806FB0388384619A3D3E9002346
:1015E0004146FFF7F5FB1B4AA06000233846414601
:1015F000FFF7EEFB154A0023FFF7EAFBE260B5F9BF
:101600000A302A8A83FB0252A5FB065306FB0236E8
:1016100028460BA3D3E900233146FFF7D9FB0D4A37
:101620002061002328463146FFF7D2FB074A0023FA
:10163000FFF7CEFB85E76FF0850034E7AFF300805E
:10164000006BC53F5D0500003AA3950040420F00C6
:10165000D8EF2F004CFF59002DE9FF470546D0F881
:10166000109090460C4621B91AB9002004B0BDE88C
:10167000F08701230DF10E024021284606F08EFD71
:101680000028F3D101230DF10F027D21284606F039
:1016900085FD0028EAD1FCB9B8F1000FE5D099F832
:1016A0000D20D8F80030072A00F25881102B00F0E6
:1016B000768100F36881013B072B00F27881072BCC
:1016C00000F27581DFE813F06901670173015D01C4
:1016D0007301730173016D016068FEF717FFB6A314
:1016E000D3E90023FFF7A6F8064620680F46FEF769
:1016F0000DFF02460B4630463946FEF7BBFD9DF80E
:101700000E40AF4B9DF80FA0002206460F4604F096
:10171000F004FFF7EBF940B1AA4B002230463946FE
:10172000FFF7D0F9002840F01381A64B0022304685
:101730003946FFF7DBF940B1A34B0022304639466A
:10174000FFF7C0F9002840F0FD809F4B0022304693
:101750003946FFF7CBF940B19C4B00223046394661
:10176000FFF7B0F9002840F0E780984B00223046A0
:101770003946FFF7BBF940B1954B00223046394658
:10178000FFF7A0F9002840F0D180914B00223046AD
:101790003946FFF7ABF940B18E4B0022304639464F
:1017A000FFF790F9002840F0BB808A4B00223046BA
:1017B0003946FFF79BF940B1874B00223046394646
:1017C000FFF780F9002840F0A580834B00223046C7
:1017D0003946FFF78BF940B1804B0022304639463D
:1017E000FFF770F9002840F08F807C4B00223046D4
:1017F0003946FFF77BF938B1794B0022304639463C
:10180000FFF760F9002879D1754B00223046394640
:10181000FFF76CF938B1734B002230463946FFF7B9
:1018200051F9002864D16F4B002230463946FFF74A
:101830005DF938B16C4B002230463946FFF742F96A
:1018400000284FD1684B002230463946FFF74EF949
:1018500030B1664B002230463946FFF733F9D8BB2A
:10186000624B002230463946FFF740F978B344F026
:101870000C044AF0040A0C2044F080048DF80FA0F8
:101880008DF80E4089F80D00B8F1000F7FF407AF16
:1018900001230DF10E024021284606F0AEFC00287F
:1018A0007FF4E4AE4FF4E17006F076FC9DF80F3063
:1018B00003F00F038DF80F304FF47A7300930DF19E
:1018C0000F0201237D21284606F09EFCCEE60AF099
:1018D000FB0A04F07F04D1E744F00B044AF0040A49
:1018E0000B20C9E744F00A044AF0040A0A20C3E7BF
:1018F00044F009044AF0040A0920BDE744F0080452
:101900004AF0040A0820B7E744F007044AF0040A42
:101910000720DEE744F006044AF0040A0620D8E770
:1019200044F005044AF0040A0520D2E744F0040418
:101930004AF0040A0420CCE744F003044AF0040A05
:101940000320C6E744F002044AF0040A0220C0E77C
:1019500044F001044AF0040A0120BAE7022B1AD02D
:10196000042B1AD0012B0CBF022303239DF80E2059
:101970001B0122F0300203F0300313438DF80E30C8
:1019800086E70223F2E7402B0DD0802B0DD0202BD1
:101990000DD10523EAE70123E8E70023E6E7042366
:1019A000E4E70323E2E70623E0E70723DEE76FF03F
:1019B00085005BE6AFF300800000000080842E41CC
:1019C0000000E93F0000F93F000009400000194015
:1019D0000000294000003940000049400000594003
:1019E00000006940000079400000894000009940F3
:1019F0002DE9FF470546D0F8109090460C4621B9D6
:101A00001AB9002004B0BDE8F08701230DF10E02E1
:101A10004221284606F0C2FB0028F3D101230DF134
:101A20000F027D21284606F0B9FB0028EAD1A4B9AF
:101A3000B8F1000FE5D0D8F80030022B00F0F780A5
:101A4000043B18BF01235B009DF80E2022F03002FA
:101A500042EA03138DF80E309BE06068FEF756FDF6
:101A600075A3D3E90023FEF7E5FE064620680F467E
:101A7000FEF74CFD02460B4630463946FEF7FAFBB0
:101A80009DF80E406E4B9DF80FA0002206460F46B3
:101A900004F0F004FFF72AF840B16A4B0022304608
:101AA0003946FFF70FF8002840F0BB80654B002255
:101AB00030463946FFF71AF840B1634B00223046F2
:101AC0003946FEF7FFFF002840F0A5805E4B00225C
:101AD00030463946FFF70AF840B15C4B00223046E9
:101AE0003946FEF7EFFF002840F08F80574B002269
:101AF00030463946FEF7FAFF38B1554B00223046E2
:101B00003946FEF7DFFF002879D1514B00223046DD
:101B10003946FEF7EBFF38B14E4B002230463946CE
:101B2000FEF7D0FF002864D14A4B002230463946E8
:101B3000FEF7DCFF38B1484B002230463946FEF74D
:101B4000C1FF00284FD1444B002230463946FEF7F2
:101B5000CDFF30B1414B002230463946FEF7B2FF8F
:101B6000D8BB3E4B002230463946FEF7BFFF78B364
:101B700044F00D044AF0020A0D2044F0C0048DF830
:101B80000FA08DF80E4089F80E00B8F1000F7FF419
:101B900052AF01230DF10E024221284606F02DFB23
:101BA00000287FF42FAF4FF4E17006F0F5FA9DF8AE
:101BB0000F3003F00F038DF80F304FF47A7300935A
:101BC0000DF10F0201237D21284606F01DFB19E7C8
:101BD0000AF0FD0A04F03F04D1E744F00C044AF097
:101BE000020A0C20C9E744F00B044AF0020A0B2059
:101BF000C3E744F00A044AF0020A0A20BDE744F0B1
:101C000009044AF0020A0920B7E744F008044AF040
:101C1000020A0820B1E744F007044AF0020A07204C
:101C2000D8E744F006044AF0020A0620D2E701236E
:101C30000AE700BFAFF300800000000080842E415F
:101C40000000394000004940000059400000694050
:101C50000000794000008940000099400000A94040
:101C60002DE9F84F17469046994623F000427B42F3
:101C7000DFF8E4A13B4342EAD373534504460D46E3
:101C800009D8464221F00043064343EAD67656453A
:101C90008E46834608D942464B4620462946FEF7E3
:101CA000E9FA04460D4616E009F1404606F58016AD
:101CB0003E4303D1BDE8F84F00F0D2B84FEAA97611
:101CC00006F0020653EA0B0B46EAD17617D1022E34
:101CD00005D0032E0AD020462946BDE8F88F48A338
:101CE000D3E9002348A1D1E90001D8E744A3D3E90F
:101CF000002347A1D1E90001FEF7BAFAD1E7174363
:101D00000DD1BEF1000F3EA3D3E9002303DA42A1B7
:101D1000D1E90001F0E742A1D1E90001BFE7524556
:101D200024D1934218D1022E35A3D3E900230BD03E
:101D3000032E0DD0012E03D03BA1D1E90001AEE767
:101D40003BA1D1E90001D7E73BA1D1E90001A6E71A
:101D50003BA1D1E90001CFE7022EC0D0032EC5D0B0
:101D6000012E4FF0000448D00025B4E75345C8D0F9
:101D70009B1AB3F1747F4FEA23521ADB32A3D3E9E3
:101D8000002327A1D1E90001FEF774FA04460D46AD
:101D9000012E21D0022E23D0002E9CD02CA3D3E9DB
:101DA000002320462946FEF763FA17A3D3E9002350
:101DB000A2E7B9F1000F01DA3C320ADB42464B469A
:101DC00020462946FEF736FD21F0004100F048F894
:101DD000DCE700240025DBE705F100431D467AE738
:101DE0001BA3D3E9002320462946FEF741FA024609
:101DF0000B4605A1D1E900017EE74FF000456AE7F7
:101E000059F3F8C21F6EA501182D4454FB21094057
:101E1000182D4454FB2109C0182D4454FB21F9BF4F
:101E2000182D4454FB21F93F182D4454FB21E93F60
:101E3000182D4454FB21E9BFD221337F7CD90240C5
:101E4000D221337F7CD902C0075C143326A6913C93
:101E5000075C143326A6A13C0000F07F00000000C0
:101E6000C34A2DE9F84F21F00043934204460D4642
:101E70008B4620D9BF4A934201D80CD158B1224693
:101E80002B4620462946FEF7F5F904460D46204626
:101E90002946BDE8F88FBBF1000F97A3D3E90023D3
:101EA00003DD97A1D1E90001EDE797A1D1E9000198
:101EB000FEF7DEF9E9E7B04A934211D8A2F1DE72EB
:101EC00093420AD892A3D3E90023FEF7D3F9AB4B90
:101ED0000022FEF715FE0028D9D14FF0FF3A27E087
:101EE000A74A9342064621F0004700F2B880A2F5C7
:101EF0005022934200F29B8002463B463946FEF751
:101F0000B9F99E4B0022FEF7B3F9002204460D46B4
:101F10004FF0804330463946FEF7ACF902460B4697
:101F200020462946FEF786FC4FF0000A04460D467F
:101F300022462B4620462946FEF752FB02460B4618
:101F400080468946FEF74CFB73A3D3E9002306467F
:101F50000F46FEF745FB72A3D3E90023FEF78AF98B
:101F600032463B46FEF73CFB6FA3D3E90023FEF766
:101F700081F932463B46FEF733FB6DA3D3E90023DC
:101F8000FEF778F932463B46FEF72AFB6AA3D3E90F
:101F90000023FEF76FF932463B46FEF721FB68A3AC
:101FA000D3E90023FEF766F942464B46FEF718FBDD
:101FB00065A3D3E900238046894630463946FEF7BB
:101FC0000FFB63A3D3E90023FEF752F932463B46E9
:101FD000FEF706FB60A3D3E90023FEF749F932467A
:101FE0003B46FEF7FDFA5EA3D3E90023FEF740F976
:101FF00032463B46FEF7F4FA5BA3D3E90023FEF733
:1020000037F932463B46FEF7EBFA02460B464046AE
:102010004946FEF72FF922462B46FEF7E1FABAF1C0
:10202000FF3F02460B4644D12046294640E7534B2A
:1020300000223946FEF71CF9504B04460D4600229B
:1020400030463946FEF716F902460B462046294629
:10205000FEF7F0FB4FF0010A04460D4668E7494AD7
:1020600093421BD2484B00223946FEF701F9464BFA
:1020700004460D46002230463946FEF7B1FA3F4B82
:102080000022FEF7F7F802460B4620462946FEF7E7
:10209000D1FB4FF0020A04460D4649E702463B4990
:1020A0003B460020FEF7C6FB4FF0030A04460D46F0
:1020B0003EE7374B374E03EBCA03D3E90023FEF765
:1020C000D7F822462B46FEF7D3F806EBCA0602469F
:1020D0000B46D6E90001FEF7CBF8BBF1000FBCBF01
:1020E000024601F1004304460D46BCBF14461D469E
:1020F000CDE600BFAFF30080075C143326A6913C09
:10210000182D4454FB21F93F182D4454FB21F9BFED
:102110009C7500883CE4377E11DA22E33AAD903FAB
:10212000EB0D76244B7BA93F513DD0A0660DB13F0E
:102130006E204CC5CD45B73FFF8300922449C23F76
:102140000D5555555555D53F2F6C6A2C44B4A2BF3B
:102150009AFDDE522DDEAD3F6D9A74AFF2B0B33F03
:10216000711623FEC671BC3FC4EB98999999C93F7B
:10217000FFFF0F440000F07FFFFFDB3F0000F03F58
:10218000FFFFF23F008003400000F83F0000F0BF77
:10219000089500002895000030B413460446054811
:1021A0008268156825B10A46AC46214630BC6047B6
:1021B00030BC7047BC900000014B1B68184700BF43
:1021C00000000020014B1860704700BF0000002095
:1021D00030B585B004460D4610220021684606F051
:1021E0001AFE02238DF802302A46044B0193214641
:1021F000684604F091FB05B030BD00BFB921000076
:1022000080B505460E461746984603F08DFF0346F7
:1022100006F0DCFEDFF81890044649F8003042462C
:1022200030463946A84754F8090000F031FC00BF99
:10223000080000002DE9F047058B0446280790466A
:1022400011D4022905F0070540F0CD80204605F0A5
:102250003AFD78B10138218B042811D8DFE800F06D
:10226000C3106D85950001290CBF45F0100545F0A0
:102270002005258388F31188BFF36F8FBDE8F087B1
:1022800001F0070AAA4500F0A6800027B9463E469D
:10229000A368002B00F0BD8041F00801218388F382
:1022A0001188BFF36F8FA168002900F0BB800D6813
:1022B000002900F0B780D1F804803346524620460A
:1022C000C047002D76D02B6829461D46F0E701F067
:1022D00007035A1F012A1BD8002221F00701062BF1
:1022E000276889B2C4E9002209D13B4603E0628B2A
:1022F000013262831B68002BF9D141F00201218376
:10230000204605F0E0FC00287BD041F0200177E07A
:10231000042B0AD121F0070189B22183204605F060
:10232000D2FC10B141F020012183218B01F0070A7A
:10233000AA4550D00027B946AAE7236921F0070132
:1023400041F00601062DD3F8009021832DD1B9F17B
:10235000000F40D041F00801218388F31188BFF3BA
:102360006F8F3A492046C84729E021F007012369C9
:1023700041F0040189B2042DD3F804902183E6D002
:1023800000273E464FF0040A82E721F00701236947
:1023900041F0050189B2052DD3F808902183D6D0EC
:1023A00000273E464FF0050A72E700273E464FF0F1
:1023B000060A6DE72B4687E7B9F1000FD1D14FF040
:1023C0002003EFF3118883F31288BFF36F8F238B01
:1023D00023F008032383258BEA062ED525F010036E
:1023E000238305F007056669218B002EBFF66FAFCA
:1023F00000232768C4E9003321F0070141F00101FF
:102400002183218B01F0070AAA454FF000097FF4D0
:102410003FAF002F9BD041F00801218388F3118842
:10242000BFF36F8F002FC7D03D6839463346524601
:10243000204605F074FC2F46F4E7AB067FF51AAF93
:1024400025F02003238305F00705FFE64B7D000000
:1024500008B504464FF02002EFF3118382F312888F
:10246000BFF36F8F01F0E0FE204600F0BBFA034897
:1024700005F0B3FB00F034FCFCE700BF4F9900000F
:10248000014B03600020704748950000014803F0AD
:10249000F9BF00BF4895000038B5044618B90F4B86
:1024A0000F485B6898476168B1F5683F10D0B1F597
:1024B000680F0DD00B4DA9420AD011F46861206855
:1024C00007D00146084806F024FA0023236065601F
:1024D00038BD142206F09FFCF9E700BF0801002078
:1024E000789900002C5F5CA90808002008B520B38B
:1024F0004368B3F5683F10D101220368BFF35B8FD7
:1025000053E8001F002903D143E800200028F7D139
:10251000BFF35B8F0DD1002008BD094A93420AD05A
:1025200000684FF0FF324FF0FF3303F023FA00282A
:10253000F1D00448F0E70448EEE76FF4E040EBE741
:102540002C5F5CA9E98FFFFFEA8FFFFF08B5D8B1C8
:102550004368B3F5683F10D100220368BFF35B8F77
:1025600053E8001F012903D143E800200028F7D1D8
:10257000BFF35B8F0BD1002008BD074A934208D000
:10258000006803F0BBF9F6E76FF4E040F4E70348B6
:10259000F2E70348F0E700BF2C5F5CA9E98FFFFF7B
:1025A000EA8FFFFF10B5044618B91D4B1D485B6844
:1025B00098476368B3F5683F2FD0B3F5680F2CD008
:1025C000194A934219D1236803BB18484FF0FF32D0
:1025D0004FF0FF33214603F0D7F808B923681BB941
:1025E0000F4B13485B68984720681422002106F0BF
:1025F00012FC4FF46863636008E0B3F5683F0DD8E0
:102600003A2B03D040F6BA629342DED1206806F03E
:10261000C0F9636843F03A03636010BD054AF3E70D
:1026200008010020789900002C5F5CA908080020B0
:102630009E9900003A00003A08B506490648402332
:10264000142206F058F9BDE808400449044803F094
:102650008BBF00BF08030020080800205095000031
:102660006495000030BFFFF7FDBF00BF114B124A59
:102670002DE9F041D518DFF84480013DB5FBF3F5B5
:102680005D430F4B08EB0304013CB4FBF3F403FB85
:1026900004540E1B07460B49304606F0AEFB70197A
:1026A00042460021083E06F0B6FB3E6704F10800F2
:1026B000BDE8F081010000000000000004000000FF
:1026C0000400000064920000044B99685869884235
:1026D00003D003494FF080520A607047EC09002094
:1026E00004ED00E070B5264B15469A6A12F0100F03
:1026F0009A6A14BF1124102412F0080F9A6A18BFA6
:102700001224920706460AD5586B9A6A140634D5E5
:1027100019B19A6A22F080029A62132401E06FF0E4
:102720001500174B9A6A12F0010F9A6A18BF142409
:1027300012F0200F9A6A18BF1524D20602D49B6AA1
:102740009B070AD50E4B5B68190506D5314600F08C
:102750008FFA10B180F309880224094B9A6A920615
:1027600042BF5A6A22F400525A629A6A42F0FF0249
:102770009A6200232B70204670BD6FF01500CCE7E5
:1027800000ED00E0134B9A6A12F0007F9A6A14BFC2
:102790001E201D2012F0807F9A6A18BF1F2012F49D
:1027A000002F9A6A18BF212012F4802F9A6A18BF4E
:1027B000222012F4003F9A6A18BF232012F4803FAF
:1027C0009A6A6FEA02426FEA12429A6218BF2420A4
:1027D000704700BF00ED00E010B5194B0246986A43
:1027E0009C6A10F4805F14BF1720162014F4006F49
:1027F0009C6A18BF1820A40509D5986B986A000434
:1028000004D51AB19A6A22F400429A6219200C4B3C
:102810009A6A12F4806F9A6A18BF1A20D2050CD4F3
:102820009B6A13F4005F18BF1C20054A936A43F4A7
:102830007F43936200230B7010BD1B20F5E700BFA0
:1028400000ED00E0F0B5484B5B688BB00446C3F385
:102850000803002585F31188BFF36F8F02F07F40D6
:10286000B0F17F4F11D102F00C0008280DD01007F5
:102870004CBF0C4601250022033B8DF80720032B9B
:1028800005D8DFE803F0246367602C46F3E70023F4
:102890009DF80720CAB902AE04F1200720686168DC
:1028A000324603C20834BC421646F7D1099A002DBD
:1028B00054D0C2F3080121B96FEA52226FEA4222D2
:1028C000099202A9184605F001FB0BB0F0BD264B9A
:1028D000DA6A9107DBD4DA6A002AD8DBDA6A5200B6
:1028E000D5D55A69A16942F480725A61BFF34F8FFE
:1028F000BFF36F8F5A6931F8021C22F480725A615B
:10290000BFF34F8FBFF36F8F4DF6027291420AD023
:102910009A6AD2B24AB10DF1070201212046FFF7AF
:10292000E1FE0346B4E72368B2E79A6A12F47F4FE8
:1029300005D00DF107010120FFF74EFFF1E79B6A7B
:10294000B3F5803FA3D3FFF71DFFEAE70DF10702C0
:102950000021E3E70DF107010020EDE722F4FF720B
:1029600022F00102ACE700BF00ED00E0024A53692B
:1029700043F010035361704700ED00E0EFF308806F
:10298000EFF3098101B57246FFF75CFF01BD00BF9F
:10299000002080F31488BFF36F8F00F027FB002026
:1029A0000D490860BFF34F8F0C4880F3088800F092
:1029B0003DF8202080F3118809484FF40461401845
:1029C00080F30988EFF314800221084380F3148810
:1029D000BFF36F8F00F014F994ED00E0001E0020AB
:1029E00040100020BFF34F8F0549064BCA6802F420
:1029F000E0621343CB60BFF34F8F00BFFDE700BF22
:102A000000ED00E00400FA050749D1F8902000230A
:102A1000C2F307221846934200DB7047C1F8983092
:102A2000C1F8A0000133F6E700ED00E008B572B68A
:102A3000002383F31388FFF7E7FF144B4FF0FF32B7
:102A4000C3F88020C3F88420C3F88820C3F88C2002
:102A5000C3F89020C3F89420C3F89820C3F89C20B2
:102A6000C3F88021C3F88421C3F88821C3F88C21DE
:102A7000C3F89021C3F89421C3F89821C3F89C218E
:102A800062B6BFF34F8FBFF36F8F08BD00E100E068
:102A9000084B9B6883420BD1EFF3058343B1064B90
:102AA0005A6842F080525A605A6A22F400425A62CE
:102AB00006F03FB8EC09002000ED00E0094A9368F9
:102AC0006FF00A019967084958674B6843F08053D3
:102AD0004B60002383F31188BFF36F8F9368986F67
:102AE000704700BFEC09002000ED00E015498A683E
:102AF0004FF030001044EFF3098C80E8F01F2020E5
:102B000080F31288BFF36F8F0F4F4FF000664A6952
:102B10008A603E604FF07004141920680B4C2060EE
:102B2000506F0023536780F3118804B5104600F0FE
:102B30001DF9BDE8044002F1300090E8F01F8CF36D
:102B400009887047EC09002004ED00E0240800200B
:102B50001EF0040F0CBFEFF30880EFF309808169CA
:102B600011F8021C0229FFD001B505F0B1F901BD31
:102B700040B2002807DB044A4109012300F01F008E
:102B8000834042F82130704700E100E040B2002865
:102B90000CDB4309064900F01F002033012282406C
:102BA00041F82320BFF34F8FBFF36F8F704700BFF3
:102BB00000E100E0054B420900F01F0053F822201D
:102BC000012303FA00F01040704700BF00E100E06D
:102BD00040B20028A8BF00F1604001F10101B8BF78
:102BE000064B4FEA4111ACBF00F5614000F00F0009
:102BF000C9B2B4BF195480F80013704714ED00E057
:102C00000B4A08B50B4B22F07F029A60BFF34F8F3F
:102C1000BFF36F8FD3F8882022F47002C3F88820A6
:102C200002F0E0FC03F086FA00F074F802F02CFDEC
:102C30000000000000ED00E042F8203C009B42F85C
:102C40001C3C0A49019B42F8183C029B42F8143C88
:102C500021F001014FF0807342F8043C42F8081C57
:102C60000023203A02654367704700BF012200003D
:102C7000094A0346906870B113F1160F006E05D033
:102C8000A0F140029A4205D8834203D2814228BF74
:102C90000020704700207047EC09002008B514465A
:102CA0000A4A0B4B9060026F1A600D4600F05EF806
:102CB000204685F30988002163B681F31188BFF3AC
:102CC0006F8F00220023FFF79BFA00BFEC09002062
:102CD00024080020014910220A60704710ED00E02E
:102CE00072B6404080F31188BFF36F8FBFF34F8FF0
:102CF00030BF62B6BFF36F8F704700BF72B64940F6
:102D000081F31188BFF34F8F20BF80F3118862B623
:102D1000704700BF044800232021C2180133302B24
:102D200082F80013F9D1704700E100E001B5EFF33C
:102D30000580A0F110004FEAC0000449014409C910
:102D40009847BDE80140024908470000E4900000B0
:102D5000C9260000024B034A0348012100F040B895
:102D6000000004200000002074950000026E054B56
:102D7000403A1A60044A4021C3E901121846012171
:102D800000F038B82808002000000B15084AC2F8E7
:102D900098000B6823F01F03034343F01003C2F8AD
:102DA0009C308B6843F00103C2F8A030704700BF2D
:102DB00000ED00E0044B0522C3F89420BFF34F8FD1
:102DC000BFF36F8F704700BF00ED00E0BFF35F8F70
:102DD000024B0022C3F89420704700BF00ED00E0D2
:102DE00010B5034C0123227805F091F8207010BD36
:102DF000060C002008B5094A0023127805F087F870
:102E000010F1160F03D0064B0022072800DD08BD85
:102E1000C3F89800C3F8A0200130F6E7060C0020A4
:102E200000ED00E0F0B5454D2C68082C85B000F2AF
:102E30008280FFF7CBFF00200C2684420DD1404D4D
:102E4000404F2C706846FFF71BFB00240646A64245
:102E50000AD1FFF7AFFF00201CE0696806FB0011F4
:102E6000FFF794FF0130E8E7009800EB04114FEA08
:102E7000041CCB683B40B3F5000F4AD00CD8B3F527
:102E8000001F30D0B3F5800F38D0B3F5801F12D0BB
:102E90006FF0150005B0F0BDB3F1807F42D0B3F103
:102EA000007FF5D150F80C3088684A6805F01FF8AB
:102EB00040F4802009E050F80C3088684A6805F03A
:102EC00016F840F0885040F4302003902878072806
:102ED000CDE90123DCD801A9FFF758FF2B78013396
:102EE0002B700134B3E750F80C3088684A6804F05E
:102EF000FEFF40F0885040F40020E6E750F80C3028
:102F000088684A6804F0F3FF40F0E06040F4003065
:102F1000DBE750F80C3088684A6804F0E8FF40F0BE
:102F20008270D2E750F80C3088684A6804F0DFFFFE
:102F300040F08870C9E74FF0FF30ABE780950000A4
:102F4000060C00200000F0FF08B5024B1B689847F4
:102F5000002008BD34080020034B044A1860937811
:102F600043F00203937070473408002024000020CF
:102F700008B50649064821F00701C1F1005202F5E3
:102F8000802204F063FE002008BD00BF471E002021
:102F9000380800200E4A0123C2F840354FF0804225
:102FA0004FF08051C2F87835D1F83001082808D1A7
:102FB000D1F83411052904D80648415C09B1C2F89A
:102FC00038364FF080430122C3F880250020704737
:102FD00000E00140DA99000020B1034B800143F08A
:102FE00001031847704700BF7092000001F04EB90E
:102FF000084B70B5C31A0D4607499B100446594348
:103000000648402204F0D2FF2B4601462046BDE888
:103010007040184758080020B76DDBB65890000084
:1030200073B50C4C0C4A4023041B00930D460B4611
:103030000A49A41061430646094804F0E4FF011E52
:1030400005DA30462B4602B0BDE87040184702B0A2
:1030500070BD00BF5808002073800000B76DDBB65C
:1030600058900000002270B5012104461046FFF779
:10307000AFFD0F4801F094FA0E4B984215D101F0C4
:103080009FFA26690C49304604F06DFE00280BDBE0
:10309000012535642469084904F11C0004F063FE2D
:1030A000002801DBE564002070BD6FF00400FBE741
:1030B000F13000000000AD0BA495000070B5014692
:1030C0000C2309484B43C418D4E90E564033002260
:1030D0001844A26304F057FF2DB132462B46034833
:1030E000BDE87040184770BD580800205890000097
:1030F00010B1012804D07047034B1B6C5B0701D152
:10310000FFF7DCBF704700BF5808002008B54FF03C
:103110002003EFF3118183F31288BFF36F8F124AFC
:10312000136843F002001060DA0708D481F31188B5
:10313000BFF36F8F0120BDE8084001F053BA4FF094
:103140008043D3F80C24D3F80C34DB07EED50748C2
:1031500004F019FF81F31188BFF36F8F0020BDE8E1
:103160000840FFF7ABBF00BFA80800209808002068
:103170001FB500220123CDE90223094ACDF800D072
:103180006B46CDF804D004F06DFF002805DB4FF44A
:1031900080420023684602F08BFC05B05DF804FB1A
:1031A0009180000010B54FF02003EFF3118483F3FA
:1031B0001288BFF36F8F074A136823F00201DB0701
:1031C000116002D4012005F03EFA84F31188BFF3A8
:1031D0006F8F10BDA8080020024AC3B21C2003FB59
:1031E00000207047580800202DE9F0413849BFF30E
:1031F0005B8F0746012251E8003F41E8002000288C
:10320000F9D1BFF35B8F33B9324933484B60CB60A0
:103210008A6004F0BBFD7B1E012B2BD8012F07D148
:103220004FF08043D3F81C3403F00303012B21D06B
:1032300005F095FB0546F8B9284B1B78E3B14FF034
:1032400080430222C3F808230646DFF894804FF03B
:103250008044D4F81824D4F81834D20316D503F0D7
:103260000303012B01D0012F10D15DB386F3118828
:10327000BFF36F8FBDE8F0814FF02003EFF31186AD
:1032800083F31288BFF36F8F0125DEE7ADB13046BF
:10329000FFF734FDD4F81835002BDAD1D4F8042127
:1032A000002AD6D0C4F80431D4F804310123C4F87C
:1032B0001835C8F88031A360CBE70021212002F047
:1032C000FFFEE7E74FF080430222C3F80423D1E773
:1032D0005408002044080020740800201910002021
:1032E00000E100E008B5074805F0E0FA38B106480B
:1032F000FFF732FE0448FEF765FF002008BD6FF0BF
:103300001200FBE7949000000D3300000A2838B546
:10331000074D044604D1AB680D215B6828469847E9
:10332000AB6803485B68E1B29847204638BD00BFF0
:1033300094900000F0B54068057B01F01F0444EA5A
:103340004514056987B0002D64D0B2F5001F00F167
:10335000100506D12146284605F0F5F9002007B0F2
:10336000F0BD01AE0027B2F5800F0197776039D12B
:10337000B3F1007F14BF052304238DF8043000232C
:10338000CDE904630393836823FA01F111F001018D
:103390001AD1B2F1A07F17D104F01F03620903F51F
:1033A000E0732AD0012A3BD11F4A52F82330DB07B1
:1033B0000AD40DF1030632462146284601F0F0FBFF
:1033C0001A4B98421CD0029603AA2146284601F0C7
:1033D000A9FA174B984220D101222146284601F034
:1033E00047FCBBE7B3F1C06F05D0B3F1007F14BF5A
:1033F00001230223C1E70323BFE74FF0A042D4E734
:103400003146284601F02EFC094B9842DBD06FF084
:103410000B00A4E76FF08500A1E76FF015009EE7B1
:1034200051F82330FFDE00BF000300500400AD0B55
:103430000000AD0B38B545682B69B3B1103528468F
:1034400001F000FC044680B90146284601F0C2FBA9
:10345000084B98420BD108492246284601F09AFBB6
:10346000224605210620FFF7B3FB002038BD6FF090
:103470000400FBE70000AD0B7D340000420970B58D
:10348000034602D0012A17D070BD0D4E3269516833
:103490000029F9D003F01F0301250C689D40002985
:1034A000F2D08A682A4002D04B68304698472CB147
:1034B000236821461C46F2E7024EE7E72346F8E779
:1034C000809000006C9000002DE9F043466840F2C7
:1034D0000635D006337B87B002EA050554BFC2F338
:1034E0004010032001F01F07B5F5837F144647EA1B
:1034F00043178DF8030044D00FD8062D18D007D8F5
:10350000B5B1022D3FD06FF0150007B0BDE8F083D4
:10351000B5F5807FF7D101250AE040F202229542FD
:1035200033D0B5F5407F32D0B5F5007FEBD1022521
:1035300022032ED5726801238B40C2F80835326908
:1035400092BB07F01F037F092BD0012F79D13F4A8F
:1035500002EB830284F48033D2F80017C3F30043F4
:10356000C4F3404444EA430421F4E16144EA8004A2
:1035700021F0070144EA05230B43C2F8003700207D
:10358000C3E70725D4E70425D2E70525D0E70325BF
:10359000CEE7630341BF012372688B40C2F80C354C
:1035A000CDE74FF0A042D3E710360DF102023946C5
:1035B000304601F0F5FA14F4403F80460CD139460C
:1035C000304605F0BEF8224B9845D8D19DF8021040
:1035D000304601F041FBD2E701AB4FF0000903AAEE
:1035E00039463046CDE90439CDE90199CDF80C9042
:1035F00001F098F9164B984285D114F4003315D098
:103600009DF803308DF80E3084F48034C4F3004408
:103610004B4603AA394630468DF80C508DF80D40C4
:1036200001F03AFA0A4B9842CDD06CE7CDE9043369
:1036300003AA0DF1030339463046039301F072F9F2
:10364000F0E703F5E07352F82330FFDE000300508B
:103650000000AD0B08B543681B68D3F80805D3F824
:103660000C1501F0C7FE034B984214BF6FF00F001A
:10367000002008BD0000AD0B37B504460022012133
:103680000320FFF7A5FA63689D6901AA0021284677
:1036900004F06FFD002814DB019B2A681979186873
:1036A00000F0C0F800280CDB60682369064A00F1CE
:1036B000080101F045FD054B984214BF6FF00F0063
:1036C000002003B030BD00BFD13600000000AD0BBC
:1036D0000378012B08D0022B08D04BB9054B0B62A5
:1036E00001F1100002F0C0B9034BF8E7034BF6E715
:1036F000034BF4E70000AD0B0100AE0B0200AE0B74
:103700000100AD0B2DE9F04F8BB005460C469146FC
:103710000193476806694FF0FF324FF0FF333046A0
:1037200002F0C6F906F1100A00220023504602F00A
:10373000BFF9384601F048FDDFF8C0B04FF000088F
:10374000C14501D800242EE0237A039313F0080129
:103750004DD112220DF11600029105F05CFB039B86
:1037600060680199069003F0010220688DF8151039
:1037700013F0020F02998DF8142008901DD109F161
:10378000FF33434502D9237D5B0718D57ABB20223E
:1037900005A9384601F044FD584512D0184B98420F
:1037A00028D06FF00404384601F01EFD304602F0C8
:1037B0005BF920460BB0BDE8F08F0A46E8E74022EF
:1037C000E6E74FF480420023504602F071F930B131
:1037D000384601F009FD2846FFF73CFFE1E7336A70
:1037E0005B4504F10C04DCD108F10108A8E76FF097
:1037F0008504D8E76FF00F04D5E700BF0000AD0BDC
:103800000B00AD0B036803F01F025B09026004D0DC
:10381000012B034818BF002070474FF0A0407047AD
:10382000000300502DE9F04FDFF89481DFF8949108
:1038300085B01546824600EB8101514503D1002039
:1038400005B0BDE8F08FDAF80030DE04C3F34322A0
:1038500003F07F0400F1AE807F2C4FEA134318F889
:10386000027008BF4FF0FF34222B00F2A680DFE881
:1038700003F012191F22252B22A4A4A4A43C68A49F
:10388000A4A4A4A4A4A4A4A46B818487A4A4A48AAB
:103890009295989B9E00C5F80C45601C5ED10AF17C
:1038A000040ACAE7C5F81445621CF8D000265FE098
:1038B000C5F80845F1E7C5F81045F5E7631CC5F8FC
:1038C0000845ECD0002604E0661CC5F80C45E6D09F
:1038D000012603A80394FFF795FF039B4FF0010B0C
:1038E0000BFA03F3C0F80C3508E0C5F80845002FC3
:1038F000DAD1631CD3D00026B3460627DAF80030AD
:10390000019303F40052002A03A81CBF4FF0000BE0
:1039100001260394FFF776FF039A019B00EB8200D8
:10392000C3F3C114D0F800273B0243EA840343EAFF
:103930000B0302EA0902134343EA4603C0F80037C7
:10394000ADE7C5F80C45D2E7C5F86045601CDAF86C
:103950000030A4D0C3F38033002BB9D003A8039464
:10396000FFF750FF039B012606FA03F3C0F8083562
:10397000B346C3E7C5F86445E8E7C5F86845E5E739
:10398000C5F86C45E2E7C5F82445621C87D04FF0C6
:10399000000B0126B2E7C5F828457EE7C5F830459B
:1039A000F3E7C5F83445F0E7C5F83845EDE7C5F865
:1039B0003C4572E76FF0150042E76FF085003FE786
:1039C000189A0000F0F8FCFF014B01221A607047C2
:1039D00000C000400C2903690BD15B6A0649074807
:1039E0004B4393FBF0F100FB113311605360002057
:1039F00070476FF08500704790D0030040420F0081
:103A0000044B00690022C3F80021D3F8003102F012
:103A10002BB800BF00C000407FB50569AB6A63B337
:103A20003A2901D00C292BD105F110064FF0FF32B5
:103A30004FF0FF33304601F09DFF134B0193A86A0E
:103A40000323002469460394029304F09FF94FF086
:103A5000FF324FF0FF33284602F02AF8A86A04F03C
:103A6000EDF90A4BD3F808256A6201225A60304604
:103A700001F044FF204604B070BD6FF00A00FAE781
:103A80006FF08500F7E700BFC939000000C00040B3
:103A900010B504690020FFF79FFBA0624FF0FF32D2
:103AA0000021204604F07CFF04F1100004F071FFB7
:103AB000002201210C20FFF78BF80C20FFF758F8AB
:103AC000024B0122C3F80423002010BD00C00040B7
:103AD0002DE9F7430646002201210220FFF778F87E
:103AE0000220FFF745F8776835693C684FF0000819
:103AF000C4F800852E60D7F80C9001AA41464846CC
:103B000004F037FB002839DB019BD9F80020197934
:103B10001868FFF787FE002830DB6B7AD6F810C0F4
:103B2000012B03D0032B27D14FF01008AB7A032BC6
:103B300022D1E97A09B101291ED12A7A12B1022AC9
:103B40001AD10E226B687068B3F5164F006800F04A
:103B5000B28034D8B3F5165F00F0B0801AD8B3F550
:103B6000966F00F0AD800CD8B3F5967F00F0AB8077
:103B7000B3F5167F00F0AA806FF0850003B0BDE8B2
:103B8000F083B3F5166F00F0A480B3F5965FF3D120
:103B90005C4B43E0B3F5E14F00F09E8008D8B3F5ED
:103BA000615F00F09B80B3F5964FE5D1564B35E051
:103BB00047F6122E7345DFD14FF400032EE0B3F524
:103BC000613F00F08D8015D8B3F5963F00F08B80F3
:103BD0000AD84DF6C02E734500F08780B3F5614FCB
:103BE000CAD14FF46B0319E0B3F5E13FC4D14FF0F4
:103BF000EB7313E0B3F5612F7AD009D8DFF80CE14D
:103C0000734578D0B3F5E12FB6D14FF0E86305E006
:103C1000DFF8FCE07345AFD14FF08053C0F8243596
:103C2000736841EA08011B680A43C3F86C25D5E9AB
:103C300001010CF1040383E803007B68990712D5A6
:103C400005F1180001F040F9324B984256D1287E18
:103C500004F10C0204F5907104F0EBFC2B7E0120C2
:103C6000984000F035FC0823C4F800353B7A53B97E
:103C7000C4F81031D4F810316B69C4F8343501231D
:103C8000C4F8383523607B689A075CBF4FF48073B3
:103C9000C4F804337B68DB0644BF4FF48003C4F8E8
:103CA00004332B69C4F8443500200123C4F84805C7
:103CB000A360E36062E74FF41D03AFE7164BADE787
:103CC0004FF49E23AAE74FF4A033A7E74FF41C3329
:103CD000A4E74FF41D23A1E7104B9FE7104B9DE78E
:103CE0004FF06C739AE70F4B98E74FF4650395E735
:103CF0004FF0706392E74FF080638FE76FF004003E
:103D00003CE700BF00B0130000A04E0090D00300BD
:103D100040420F000000AD0B0050270000C07500AE
:103D200000F03A0000903A01F8B5044607690D46E4
:103D300004F015FEB0B92E4B1B789BB16426606869
:103D400004F010FC00BB012004F071FC013EF6D130
:103D50000021212002F0B4F9F0E786F31188BFF3C7
:103D60006F8FF5E74FF02003EFF3118683F312888E
:103D7000BFF36F8F6068314604F0F4FB90B986F3AF
:103D80001188BFF36F8FEDE74FF02003EFF311863B
:103D900083F31288BFF36F8F6068314604F0E2FB53
:103DA0000028DAD03B691D70626838691368C3F86F
:103DB00044050120C3F848050020C3F82001D3F8CA
:103DC0002051C3F858015268D3F85801D20608D5DB
:103DD000626812680820C2F800054FF48002C3F838
:103DE000042301229A6081F31188BFF36F8FF8BD1D
:103DF0001910002070B5012383400E4ABFF35B8F7A
:103E0000DC4352E8001F01EA040542E80056002E98
:103E1000F7D1BFF35B8F4FF4803282400648C0F881
:103E20000823BFF35F8FBFF36F8F0B4214BF0120D6
:103E3000002070BDF40800200010014070B40E494D
:103E4000D1E90034D01AC31844F1000422F07F46AF
:103E5000C1E90034A6F50013B3F5400F09D2074BB2
:103E60001B681A0A1B069C19054B42F10005C3E9A1
:103E7000004570BC02F034BAD8010020F8080020D8
:103E8000E001002011B3BFF35B8F0123104A834090
:103E900052E800CF4CEA030C42E800C10029F7D1F8
:103EA000BFF35B8F0B4A4FF480338340C2F8043377
:103EB000094BBFF35B8F1B68BFF35B8FC340DB070E
:103EC00042BF064B4FF40032C3F80021704700BFD9
:103ED000F408002000100140F008002000E100E09C
:103EE0000D4B1868010A0006BFF35F8F0B4BD3F828
:103EF0000435181841F10001B3F5801F0AD2084BB0
:103F0000D3E90023904271EB030303D210F18070D8
:103F100041F10001704700BFF80800200010014087
:103F2000E00100202DE9F04F85B016461F469DF8B0
:103F300040A00446FFF75EFF0190FFF7D1FFB042BB
:103F400071EB070354D23E4B301A67EB01019842E4
:103F500071F100014FD23B4B03EB0413D3E9022371
:103F60009F4208BF96425ED037494FF4803804F133
:103F7000500508FA04F8AD00C1F848832046ADB2F8
:103F800004F039FB26F07F4B05F1804504F5A8735A
:103F900005F58835DC464FF003090293029A2CF0B0
:103FA0007F4341F82230C1F84483D1F80435274AD1
:103FB0006FF00200C01A604420F07F40904232D976
:103FC000286868B1D1F804350393A3EB0B0020F007
:103FD0007F40B0F5000F26D9204604F00CFB039B70
:103FE000BAF1000F07D109EB030C09F10109D5E77C
:103FF000BAF1000F09D06FF0150520460199FFF7BF
:1040000041FF284605B0BDE8F08F0123104ABFF3F9
:104010005B8FA34052E8000F184342E800010029DB
:10402000F8D1BFF35B8F07490E98230101EB04120F
:10403000C8500F9B5360C2E902670025DDE700BF4F
:1040400001008000C801002000100140FDFF7F003A
:10405000F00800207FB51C4C1C4BC4F80833C4F892
:1040600048331B4B00254FF0FF304FF0FF31C4F8B1
:104070000855C3E902014FF48033C4F80433154BEB
:1040800002264FF400320121C4F804631120C3F862
:1040900080212A46FEF79CFD1120FEF769FD0E4A9D
:1040A0000123A360236013600C4B0D4A0093CDE9FC
:1040B000015500232846FFF735FF3046FFF794F8F7
:1040C000284604B070BD00BF0010014003000F007F
:1040D000C801002000E100E0F40800203D3E00009F
:1040E000FFFF7F002DE9F7432F4CD4F804339907E5
:1040F0000BD5D4F8043143B12C4A0023C4F8043161
:10410000D4F80431136801331360D4F80433DA03AC
:104110002AD5BFF35B8F264B53E8002F22F0010115
:1041200043E800100028F7D1BFF35B8FD30702D418
:10413000D4F84031C3B10025C4F84051D4F840311F
:10414000FFF7CEFE4FF02003EFF3118283F31288C6
:10415000BFF36F8F174BD3E90267B042B94106D264
:1041600082F31188BFF36F8F03B0BDE8F0834FF087
:10417000FF384FF0FF39C3E90289D3E900101D6011
:104180004FF48033C4F84833C4F84051D4F8403178
:1041900082F31188BFF36F8F0029E5D0009032467B
:1041A0003B4628468847DFE700100140F80800201A
:1041B000F0080020C801002030B5431C124C85B027
:1041C00005D08442A8BF0446012CB8BF0124FFF7E4
:1041D00087FE0E4B0C4DD3E90013401AB0F5000FCB
:1041E00010D22218AA4228BF2A4652184FF00000C7
:1041F00007490091CDE9010043F10003FFF792FE6A
:1042000005B030BD2A46F0E7FFFF7F00D80100204F
:104210003D3E000008B5FFF763FE024B1B68C01A65
:1042200008BD00BFD801002010B5084C0123636011
:104230001120FEF7ABFC064BC4F80833C4F8483332
:10424000044B4FF40032C3F8802110BD0010014030
:1042500003000F0000E100E04FF08053D3F830215D
:10426000082A06D1D3F83431052B02D8024AD05C93
:1042700070470020704700BF9D9B0000024AD2F8A3
:104280000034002BFBD0704700E0014010B54FF028
:104290008053D3F83021082A4ED14FF080420021BC
:1042A000C2F80C11C2F81011C2F8381502F54042DC
:1042B000D3F80414C2F82015D3F80814C2F8241552
:1042C000D3F80C14C2F82815D3F81014C2F82C1522
:1042D000D3F81414C2F83015D3F81814C2F83415F2
:1042E000D3F81C14C2F84015D3F82014C2F84415B2
:1042F000D3F82414C2F84815D3F82814C2F84C1582
:10430000D3F82C14C2F85015D3F83014C2F8541551
:10431000D3F83414C2F86015D3F83814C2F8641511
:10432000D3F83C14C2F86815D3F84014C2F86C15E1
:10433000D3F84434C2F87035FFF78EFF18B13A4B0A
:104340003A4AC3F88C26FFF787FF18B1384BFB2297
:10435000C3F81825FFF780FF70B14FF080414FF090
:104360008053D1F8E42ED3F8583222F00F0203F034
:104370000F031343C1F8E43EFFF76EFF20B12D4B4E
:104380004FF40072C3F840264FF08053D3F8303119
:10439000082B1AD14FF08043D3F80024D20744BF32
:1043A0006FF00102C3F800244FF08053D3F834318A
:1043B000052B02D8204AD35C3BB14FF01023D3F831
:1043C00008224FF08043C3F858254FF01023D3F84C
:1043D0000022002A03DBD3F80432002B22DA17492B
:1043E00001234FF01020C1F804351224FFF746FFD7
:1043F000C0F80042FFF742FFC0F80442FFF73EFF5B
:104400000023C1F80435FFF739FFBFF34F8F0C4984
:104410000C4BCA6802F4E0621343CB60BFF34F8FCA
:1044200000BFFDE710BD00BF005000404881030001
:1044300000F0004000900240979B000000E0014027
:1044400000ED00E00400FA0530B50468CCB1BFF31C
:104450005B8FB4FA84F3C3F11F03DBB201229A40ED
:1044600024EA020250E8005FA54204D140E8002C93
:10447000BCF1000FF6D1BFF35B8FE6D102480B70A1
:1044800030BD0248FCE700BF0000AD0B0200AD0BE1
:1044900010B50368CB40DB0714D401238B400268BE
:1044A000BFF35B8F43EA020150E8004F944204D10E
:1044B00040E8001CBCF1000FF6D1BFF35B8FEED1DA
:1044C000014810BD0148FCE70000AD0B0400AD0B36
:1044D000014BC3F80405704700F00140F7B50446EE
:1044E00018B1012823D003B0F0BD4FF08043022261
:1044F000C3F808230122DA60C3F80401D3F80431B9
:10450000064601238DF8073042F210754FF08047C0
:10451000D4B1012CE7D1D7F80C3403F48033AEBB0F
:1045200083B3012004F083F8013DF4D12AE04FF079
:1045300080430022C3F808035860C3F80021D3F871
:1045400000310DF10706DCE7D7F8183403F48033A7
:104550003EB9002BC7D0012004F069F8013DF3D12A
:10456000C1E7D7F8182402F003023260002BBAD05A
:104570009DF80700012803D104F059F8013DC7D187
:10458000012CB0D1054B00225A71ACE7D7F80C24AE
:1045900002F001023270002BEAD1F3E7FC080020A0
:1045A000044B1A7922B9012218609A800248704798
:1045B00002487047FC0800200000AD0B0C00AD0B5A
:1045C00008B5074B1B682BB10020FEF7F3FA08B9BA
:1045D000FEF7CEFA4FF080430022C3F8182508BD3D
:1045E000FC08002010B510B1012843D010BD4FF0D9
:1045F0008043D3F81814D3F81824C80321D502F047
:104600000303012B04D013B10020FFF767FF002341
:104610004FF080420220C2F8183508224FF482730E
:1046200003F180430021196002F180421C680124DB
:104630001460154A12680AB34FF08043C3F80403AC
:10464000D4E7D3F81424D107E1D5D3F81C2492077A
:10465000DAD40D4A12681AB10222C3F80423C5E75E
:10466000D3F80421002AFBD00022C3F80421D3F898
:104670000431BBE700224FF48073D1E71A68002AA7
:10468000FCD019601B68B1E7FC08002010B54FF0A2
:104690008043D3F800216AB10022C3F80021D3F887
:1046A00000210122C3F80823114B587910B95A711F
:1046B0001B6898474FF08043D3F8042172B1002261
:1046C000C3F80421D3F80421D3F81824D3F818240C
:1046D000920704D10122C3F818259A6010BD022266
:1046E000C3F80823024BBDE810401B68012018479F
:1046F000FC080020036803F01F025B09026004D07D
:10470000012B034818BF002070474FF0A0407047AE
:1047100000030050034A430900F01F00D35C184413
:10472000C0B27047A39B000070B50546FFF7F2FFCB
:104730000C4C08300E4634F81030DA0508D5C3F3B7
:10474000432304EBC302284654F833305268984799
:10475000A3682BB1E26831462846BDE8704018478F
:1047600070BD00BF7800002008B5FFF7D3FF034BF2
:10477000083033F81000400B08BD00BF780000205F
:1047800008B5FFF7C7FF034B083033F81000C0F33C
:10479000400008BD7800002008B5FFF7BBFF034BC1
:1047A000083033F81000C0F3401008BD7800002036
:1047B000034611F0010010B5CCB20DD1A207C4F32D
:1047C000400012D5094AD2F820055860C2F82005E9
:1047D000003818BF012008E04FF0A041D1F8202593
:1047E0001A60C1F82025002AE8D010BD000300504F
:1047F00010B5FFF78FFF124A083032F81030D90594
:104800001CD5C3F3432123F4F85322F8103002F1EE
:104810000E04002034F8023F13F4807F03D0C3F36A
:10482000432399420AD001303028F3D1002342F8C3
:1048300031300448BDE81040FFF72ABE10BD00BF6C
:1048400078000020F0000020F0B505460020044666
:10485000012607468C420BD1114BD3F87C2132B193
:104860000022C3F87C21D3F87C3140F00040F0BD39
:10487000E3B29B0003F580729B0806FA03F31D4226
:104880000BD002F1804202F5C042D2F800C0BCF168
:10489000000F02D01760126818430134DAE700BF36
:1048A00000600040F7B506460846FFF733FF194F92
:1048B00000F108050C4637F81530DB0727D53046E0
:1048C00003F01BFF2046FFF767FF40B12046FFF7CC
:1048D0004BFF316800F5A270002341F820302046DC
:1048E000FFF786FF002301A827F815300194FFF792
:1048F00001FF019B00EB8300074BD0F8002713401A
:1049000043F00203C0F80037044803B0F0BD044888
:10491000FBE700BF78000020F0F8FCFF0000AD0BC3
:104920000400AD0B2DE9FF41164680460846FFF70F
:10493000F1FE0D463168044609B32846FFF720FF13
:1049400018B12846FFF728FF10BB0023CDE900333C
:104950008DF80E308DF80F300DF10F020B46284602
:104960000DF10E0103F071FE474A04F1080132F81F
:10497000113023F0020343F0010322F81130736871
:1049800063B328461F785968FFF7FAFE10B1D1B11A
:104990003E4826E03C4A04F1080032F8103023F08B
:1049A0002003DB04DB0C22F8103061B1032FEFD8B9
:1049B0007168496891F800C0D8F80010A7B90CF5E3
:1049C000A27C41F82C70304A04F1080132F8113011
:1049D00023F01C0343EA870322F81130B3684BBB72
:1049E0002B4804B0BDE8F08101EB8C0143EA4C3365
:1049F000D1F810E52EF0030EC1F810E5D8F800103C
:104A000001EB8C0E43F02003DEF8101522F8103075
:104A100021F44F3121F44071CEF810152902DEF84F
:104A2000108501F47C5141EA074141EA0801CEF8C2
:104A30001015C8E7D3E900672846FFF7D9FE002E16
:104A4000CED0114DD5E90023964203D19F4201D12A
:104A5000002209E00F480DF10F01FFF7F5FC0C4BA8
:104A60009842BED19DF80F2045F8326005EBC20395
:104A700008345F6035F8143043EA422343F480730E
:104A800025F81430ACE700BF780000200400AD0B1F
:104A90000000AD0BF00000202DE9F0430C4685B07E
:104AA0008046204611461E46FFF734FE054629B3D0
:104AB0002046FFF765FE18B92046FFF76DFE18BBCC
:104AC000314F05F1080937F8193013F01C0F02D0E7
:104AD0004B78012B18D001238DF80F300023CDE93E
:104AE00000134A1C8B1C20460DF10F0103F0ADFD95
:104AF00037F8193043F0030327F81930002E41D05E
:104B00002046FFF73DFE18B9204805B0BDE8F08308
:104B100096F800C0D8F800301B4F0CF5A2720021A7
:104B200043F8221005F1080237F8121021F0200195
:104B3000C904C90C27F8121075781DB3D8F8000005
:104B4000B67800EB8C002D04D0F8103523F49913BF
:104B500023F4F853C0F81035230203F47C5305F412
:104B600040353605D0F810E52B4306F4801641EAAF
:104B70004C31334341F0200143EA0E0327F8121071
:104B8000C0F810350248C0E7780000200400AD0BE3
:104B90000000AD0B014BC3E9021270477800002002
:104BA00010B508461446FFF7F7FD50B10846FFF769
:104BB000B1FD054B083033F8103004485B0B23700F
:104BC00010BD0348FCE700BF780000200000AD0BDB
:104BD0000400AD0B70B5184E96F8804005464CBBEE
:104BE0002146602206F1100004F015F92D68306F9F
:104BF0002146884212D10023C5F87C3145F30730A5
:104C0000D5F87C31FDF7B4FF4FF00043C5F804330D
:104C10000A48012386F88030B36770BDCBB29B0091
:104C200003F580727C2B08BFAC5001F1010108BF75
:104C3000AB58DEE70248F0E7780000200000AD0B3B
:104C40000C00AD0B034B93F88000003818BF012017
:104C5000704700BF780000200148FFF719BC00BF73
:104C6000EC0000200148FFF7EFBB00BFEC00002084
:104C700073B5054608460C461646FFF78DFD00B392
:104C80000846FFF77DFD0146D8B92046FFF76CFDC9
:104C900004B2A40004F58072034628688150296894
:104CA00082582144D1F8102542F00102C1F81025A4
:104CB0002EB12968012202FA03F3C1F8043302B0CD
:104CC00070BD2046FFF726FD0F4B083033F810303B
:104CD000C3F38203042B12D0052B12D001A8019438
:104CE000FFF708FD019AD0F81035D34003F0010317
:104CF000991C204602B0BDE8704003F0EFBC0321D0
:104D0000F7E70221F5E700BF780000202DE9F04F1A
:104D1000694BDFF8A881D3F80403D8F87010C0B24B
:104D200089B040F00040FFF78FFD051E2FDAC24624
:104D300000235AF87C1F06A8CDE90633FFF738FD9B
:104D40005F4B01930DF118094FF0000B019A12F817
:104D5000013B0192DA0803F007031AF8022022FA55
:104D600003F3DA071CD409F10409BBF1000F14D0D6
:104D7000D8F870104FF00040FFF766FDD8F87C10AF
:104D800006A8FFF715FD0028DAD125F0004501241B
:104D9000002D79D109B0BDE8F08F4FF0010BD5E7B8
:104DA000484B5B440293D9F800100029DBD0029BEA
:104DB00091FAA1F11C78B1FA81F141EA441420463C
:104DC000FFF7A8FC0830059438F81070C808BB0835
:104DD00019F80020039301F00701012303FA01F100
:104DE00022EA010209F8002005A8FFF783FC059AD2
:104DF000039B02F5E072C7F3820650F822205B079E
:104E00003746C2F3014224D520463946D6B2FFF7D1
:104E10008BFC05A80594FFF76DFC059B03F5E0737B
:104E200050F82330C3F301439E4207D100212046AE
:104E300003F054FC3146204603F050FC05A80594CD
:104E4000FFF758FC059B012202FA03F3C0F8203556
:104E5000A9E7022A0CD10321204603F03FFC06F00B
:104E60000503012BEAD139462046FFF75DFCE5E753
:104E700002212046039203F031FC032EF3D0039A63
:104E8000032ADBD1022EEDE795FAA5F3B3FA83F3FB
:104E900004FA03F29B0003F1804303F5C04325EAC3
:104EA0000205D3F81005D3F81015C0F30520C1F39F
:104EB0000141FFF739FC6BE70060004078000020FB
:104EC000B39B0000B39B000001460148FFF7BCBA4A
:104ED000FC00002030B500F01F04400911D001286B
:104EE00012D10C4800EB84001B02D0F800570A4C8A
:104EF00043EA82022C4042EA41012143C0F80017F4
:104F000030BD4FF0A040EDE704F5E074002353F806
:104F10002430FFDE00030050F0F8FCFFCB7B10B420
:104F200033B9D1E900420368C3F80845C3F80C253A
:104F300003688A68C3F8242503793C225343054A51
:104F4000D3582BB1006810BC40F30730FDF710BEFA
:104F500010BC70470409002013B53B4B019300239C
:104F6000C0F80431D0F80421C0F82431D0F824214D
:104F7000C0F81C31D0F81C21C0F80831D0F8082145
:104F8000C0F800324B6381F82F300123036291F89F
:104F90002D209A4218BF83604B6B8A6A9342044665
:104FA0000ED24A6AD35CC0F81C350B6803B340F2DA
:104FB00086238B608B682548C4F8043302B010BD8B
:104FC00091F82C3013B10123C361EEE70B6A13F0A3
:104FD000400F4FF0010316BFC361436181F82D30CC
:104FE000E3E7204603F0B1FB28B1019B013B0193AD
:104FF000019B002BF5DC91F82F305BB91348019B26
:10500000002BDBDC0023C4F8003505231048C4F86E
:105010000035D3E7D4F8C434C4F8C4348BB10D4A96
:105020000B4813F0010F18BF104613F0020F02F1E6
:10503000010218BF104613F0040F074B18BF1846A3
:10504000DDE70348DBE700BFA08601000000AD0BF1
:105050000100AD0B0000AE0B0200AE0B13B5334BDD
:1050600001930023C0F80431D0F80421C0F82431A2
:10507000D0F82421C0F81C31D0F81C21C0F8083128
:10508000D0F808214B6381F82F308B6A012B04463E
:1050900017D10B6A5B0614D40223C4F80032012333
:1050A000236291F82D20022A18BF23600B688BB170
:1050B00040F286238B608B681D48C4F8043302B02D
:1050C00010BD0123E9E7204603F03FFB28B1019B17
:1050D000013B0193019B002BF5DC91F82F305BB96C
:1050E0001348019B002BEADC0023C4F8003505239C
:1050F0001048C4F80035E2E7D4F8C434C4F8C43426
:105100008BB10D4A0B4813F0010F18BF104613F076
:10511000020F02F1010218BF104613F0040F074BF3
:1051200018BF1846DDE70348DBE700BFA086010093
:105130000000AD0B0100AD0B0000AE0B0200AE0B8A
:105140002DE9F84390F804901C4E07463C2000FBE4
:1051500009F035180C4695F82E1061BBA960325045
:105160006B6085F82D1085F8311085F83010CCB1C2
:10517000637B85F8383094F80E8085F83980B8F173
:10518000000F0BD12068062303224146FFF7A2FE41
:105190006068062303224146FFF79CFE21463846FD
:1051A000FFF7BCFE3C2303FB09660548012386F894
:1051B0002E30BDE8F8830348FBE700BF0409002058
:1051C0000000AD0B0C00AD0B036802790521C3F89C
:1051D0000015044B3C2101FB0233022283F82E20F0
:1051E000704700BF0409002003680B4A0179C3F827
:1051F0000823D3F8002222F00302C3F80022002281
:10520000C3F80025054B3C2000FB0133012183F846
:105210002E1083F8302070478642040004090020D5
:105220002DE9F047314F0479D0F800903C2303FB7F
:1052300004730D4693F82D30012B944604D10B785E
:10524000012B06D12A4811E0022B02D10B78012B49
:10525000F8D13C26274BC9F8083306FB047696F8AC
:1052600030302BB1B3682448C9F80433BDE8F08767
:105270008CF00403C3F3800386F83030C6F820C0F6
:10528000A846B8E80F0006F10C0EAEE80F00D8F8FB
:105290000030CEF800306B68B362EB6873626B78F5
:1052A000C9F888352B78C4EB041A012B07EB8A0A5E
:1052B00017D09BB9CCF3401C3C2303FB047351462D
:1052C000484683F82CC0FFF747FE3C235C433A195D
:1052D0003B59002BCAD182F83030C7E74FF0010CA0
:1052E000EAE751464846FFF7B9FEEEE70409002019
:1052F0000500AD0B864204000B00AD0BF0B5324C3F
:10530000324887B0214603F020FA002859D194F89A
:105310002F70FFB9227B931E012B1BD8606AA369F3
:10532000984217D1E36963626369A362236A2748DD
:1053300084F82D70C3F34013032A84F82C3004D171
:1053400007B0BDE8F040FFF707BE07B0BDE8F0408A
:10535000FFF784BE1E4E0FCE01AD0FC533682B6024
:1053600047B31A4AD2F8C434C2F8C43413F0020165
:1053700006D001238DF80030002384F8303007E098
:1053800013F0040209D002238DF8003084F83010A5
:10539000D4E900316846984713E013F0010305D0C3
:1053A00003238DF8003084F83020F1E704228DF8D3
:1053B0000020E2E7236A8DF800705B0784F8307004
:1053C000E6D507B0F0BD00BF040900200030004062
:1053D00010090020036803F01F025B09026004D07B
:1053E000012B034818BF002070474FF0A0407047C2
:1053F00000030050F7B5064603F03FFA084603F0F5
:105400003CFA01A80196FFF7E5FF019B2E4D00EB4A
:1054100083000C46D0F80037019440F20D612B4018
:105420000B43C0F8003701A8FFF7D4FF019B00EB46
:1054300083000127D0F800372B400B43C0F800371A
:10544000042003F0F4F8092501A80194FFF7C2FF36
:10545000019AD0F81035D340DB0715D401A8019686
:10546000FFF7B8FF019B07FA03F3C0F80C350420DF
:1054700003F0DDF8304603F000FA013D042003F0AC
:10548000D6F815F0FF05DFD101A80194FFF7A2FFC0
:10549000019A01239340C0F80C35042003F0C7F8AB
:1054A000204603F0EAF9042003F0C1F801A80194B2
:1054B000FFF790FF019AD0F810350448D34003F06D
:1054C0000103C01A03B0F0BDF0F8FCFF0100AD0B02
:1054D00008B5144BA8220021184603F09CFC0322B7
:1054E000026111494261114A8161C2614FF48062D7
:1054F0000262002282624262C26201660C49416617
:105500001021816603460267C2664267BFF35F8F60
:10551000084911F8010D98540132102AF9D1BFF34E
:105520005F8F08BD40090020B59B0000190C0020CA
:10553000090C0020CE9B000038B54FF02003EFF39C
:10554000118583F31288BFF36F8F064B9C6803F0BD
:105550005EF885F31188BFF36F8F2046BDE83840B1
:10556000FDF796BAEC090020104B70B553F82040B7
:10557000013053F82060A64200D870BDD4E9003550
:1055800095B153B12846984738B10028B8BF40427A
:10559000EB68FF28A8BFFF201870EA68537843F033
:1055A000010353700834E6E79847FBE72C970000A7
:1055B00008B50A4B012203201A70FFF7D5FF00F04F
:1055C00013FF0420FFF7D0FF00F04CF9FBF7BCFD00
:1055D000034A137B23F00103137308BD1910002045
:1055E0006802002008B50348034A0021121A03F09C
:1055F00068F908BDC80100201C10002070B5002308
:1056000086B00122CDE90423194E1A4D01930F22D1
:10561000CDE902321849142303FB005506EBC016EE
:1056200004464FF4C070154B00954FF4A07200FB78
:105630000411304600F0D6F8737B114AEE6023F077
:10564000040373734FF4046304FB033313446B606C
:105650000C4B2C74BFF35B8F53E8001F013143E800
:105660000012002AF8D1BFF35B8F06B070BD00BFF7
:10567000E8010020EC090020801800206B89000060
:1056800040100020E809002080B50020A6B0FFF7F8
:105690006BFF2D4B83F308882C4D2D4E6B692D4FDE
:1056A00043F400736B610024E02385F82230EC772B
:1056B0002C766C76AC7685F820406B6A43F4E02358
:1056C0006B6285F82340FDF751F9FDF703FB4FF0BE
:1056D000FF33AB62EB62FDF7A5FBFDF73BFB40F24E
:1056E0000113ADF8243006ABB360CDE91E4421941C
:1056F00003F0DBF80120FFF737FF0220164DFFF71C
:1057000033FF00F053FC154B7561059301231449D9
:105710000094CDE903434FF480623B46CDE9014458
:10572000284600F05FF86A7B064622F0040228460D
:105730006A7303F07BF92046FFF760FF3A46314673
:105740002846FDF7ABFA00BF8018002000ED00E00E
:10575000EC090020B155000068020020CF9B00003A
:10576000001A002038B5064C064D0020AC4200D38C
:1057700038BD204603F0A9F80028F9DB1C34F5E712
:10578000760100207601002073B50C464FF020050D
:10579000EFF3118185F31288BFF36F8FC5685DB198
:1057A00025602B68C360836901338361002081F326
:1057B0001188BFF36F8F11E052EA030603D1256011
:1057C0006FF00B00F3E7CDE900230246083000F04C
:1057D00029FB18B9024B9B685B69236002B070BD5E
:1057E000EC0900202DE9F04385B00732994600F11D
:1057F000580322F00706C0E91633109B037306F125
:1058000040050423002743730D440F9B8373884690
:10581000C0E9067729468760C7730446FCF726FF70
:1058200008F140030730C4E9183620F007000E9B4A
:10583000A06602930D9B01932D1A0C9B00932A46A0
:105840004B4641462046FDF7F7F9054B67659B68D7
:1058500003B1DB6EE366284605B0BDE8F08300BF08
:10586000EC09002070B5224C224D86B02646AE428F
:1058700004F130040AD300F069FB1D4C1E4EAC420B
:1058800020D306B0BDE8704000F074BB54F80C3C67
:10589000059354F8103C049354F8143C039354F8C3
:1058A000183C029354F81C3C019354F8203C00939C
:1058B00054E90A2354E90C01FFF794FF54F8303CF3
:1058C0005E65D3E7D4E90A23B3F1FF3F08BFB2F125
:1058D000FF3F05D052EA0301206803D100F018FB16
:1058E0003034CCE73146183000F084FCF8E700BFD4
:1058F0006492000064920000C78A000038B5836893
:1059000004466BB3194A926893422CD1C368012BA9
:1059100003D9013BC360002038BD4FF02003EFF3F3
:10592000118583F31288BFF36F8F0169806803F0DC
:1059300028F8204603F0CBF8A06058B190F90E206B
:1059400022610022826703F071F80948294600F0BD
:10595000CDFAE0E7E06085F31188BFF36F8FDAE7F7
:105960006FF01500D8E74FF0FF30D5E7EC090020C5
:105970001A1000202DE9F341044617461E464FF049
:105980002003EFF3118883F31288BFF36F8FC3688E
:10599000334A7BB180689168884219D057EA060380
:1059A00018D188F31188BFF36F8F6FF00F0002B02A
:1059B000BDE8F081916891F90E1021610133E36037
:1059C0009368A36088F31188BFF36F8F0020EEE720
:1059D0002169F2E791F90E1090F90E309942A8BFB3
:1059E00019466FF07E029142B8BF11468B422EDD00
:1059F00002F0C7FF0546CDE900761A482246414627
:105A000000F010FA0028E1D04FF02003EFF31186E8
:105A100083F31288BFF36F8FA068D0B12368216928
:105A20009C420AD04BB193F90E309942A8BF194657
:105A30006FF07E039942B8BF194602F0A2FF40B151
:105A40000848314600F052FA6FF00A00AFE700252F
:105A5000D1E7002DF4D186F31188BFF36F8FF3E700
:105A6000EC0900201A10002038B504464FF020033E
:105A7000EFF3118583F31288BFF36F8F03F027F8DC
:105A800048B10022826702F0D1FF29460748BDE8ED
:105A9000384000F02BBAD4E902329A4218BF0133E1
:105AA000A36085F31188BFF36F8F38BD1A100020F3
:105AB00013B54FF02004EFF3118184F31288BFF384
:105AC0006F8F846844B1013C846081F31188BFF317
:105AD0006F8F002002B010BD52EA030406D181F39B
